:1000000001308A002E2900008E30F7002508F80004
:100010002408F900FA01F808031D18287908F800E7
:10002000F9010830F702F808031D1828F701202805
:100030000310F81B1F28F90DF80DF7031828F81303
:100040008A110A127A2928080319E828B4002C0812
:100050000319E828B402031C32287F30B4070318C0
:10006000E82838288130B402031CE8280319E8285E
:100070003408F700F801F901FA01B3012908B200C8
:10008000B2172A08B1002B08B0001930B4002F08AD
:10009000B00203185B280130B10203185B28B202DA
:1000A00003185B28B30203185B28B30AB20AB10A2B
:1000B0002F08B0078D282E08B102031876280130CA
:1000C000B20203187628B30203187628B30AB20ADC
:1000D0002E08B1072F08B007031C8D28B10A031D95
:1000E0008D28B20A031D8D28B30A8D282D0880386B
:1000F000B20203188C280130B30203188C28B30A0B
:100100002D088038B2072E08B107031C6A28B20AEE
:10011000031D6A28B30A6A287A14B40B90289B2816
:100120000310B00DB10DB20DB30D0310FA0DF90DA2
:10013000F80DB50D4728351CA3280310F80CF90C51
:10014000FA0CB50CA628F7030319E828B51BCF282D
:100150000310B00DB10DB20DB30D2F08B00203188E
:10016000BB280130B1020318BB28B2020318BB2818
:10017000B302031CDE282E08B1020318C628013082
:10018000B2020318C628B302031CDE282D088038EB
:10019000B2020318CF280130B302031CDE28FA0A8A
:1001A000031DDE28F90A031DDE28F80A031DDE28D8
:1001B000F70A0319E828F80CF90CFA0C2908B4001E
:1001C0002D08B406B41FE628F817EC28F813EC281D
:1001D000F701F801F901FA018A110A12902925089C
:1001E000AC002908AC06AC1FFA2803110310A51BAC
:1001F00003142D292508AC002808AD002408AD0201
:1002000003190829AC1F2D290308013A83002D2961
:100210002908AD002508AD0203191429AC1F2D29AA
:100220000308013A83002D292A08AD002608AD02F3
:1002300003192029AC1F2D290308013A83002D2919
:100240002B08AD002708AD0203192C29AC1F2D295E
:100250000308013A83002D290310080003081F3901
:100260008300831603170908C039890003131F127E
:100270009F120030031788008312870188018901CB
:10028000831383160908C039890003131F129F12B4
:10029000013003178800831203131F179F1783165B
:1002A0009F1783121F140930031785000830F700C9
:1002B000031381018130840083130008C03907389B
:1002C000800064000008C739F719C039770480003E
:1002D0000030F8001F08C33978049F009F149F184E
:1002E0006F291E08FA0083161E088312A4001E0838
:1002F000A50004287A08A7007908A6007808A500B8
:100300007708A4007A08AB007908AA007808A90049
:100310007708A800AF01AE01AD018030AC00232802
:100320007A08A3007908A2007808A1007708A00045
:100330002308A7002208A6002108A5002008A40081
:10034000AB01AA017A30A9008730A800EF2003187A
:10035000AB29031DC729A701A6010C30A5008430D5
:10036000A4002308AB002208AA002108A900200845
:10037000A800EF200318BE29031DC7298316851086
:10038000831285148316051183120515CF29831650
:1003900085108312851083160511831205116E29AD
:0203A0006300F8
:04400E00E72FFF3F5A
:00000001FF
;PIC16F887
;CRC=D29E  CREATED="06-dic.-22 17:51"
